S01F00004D756C7469706C65785F74776F5F372D5365676D656E742E73726563F2
S11300000C942A000C9447000C9447000C9447006D
S11300100C9447000C9447000C9447000C94470040
S11300200C9447000C9447000C94DF030C94470095
S11300300C9447000C9447000C9447000C94470020
S11300400C9447000C9447000C9447000C94470010
S11300500C94470011241FBECFE5D8E0DEBFCDBF0E
S113006010E0A0E6B0E0EEE9F9E002C005900D92E0
S1130070AA38B107D9F710E0AAE8B0E001C01D9290
S1130080AD38B107E1F70E949D030C94CD040C94A4
S11300900000843409F471C0853448F4823499F141
S11300A0833408F04DC0813409F083C00FC0823618
S11300B051F1833620F4813609F07BC007C08336C2
S11300C009F43EC0843609F074C057C0413069F465
S11300D02AB381E090E0AC0102C0440F551F6A9539
S11300E0E2F7BA01622B6ABB08952AB381E090E07B
S11300F0AC0102C0440F551F6A95E2F7BA0160953E
S113010062236ABB0895413069F427B381E090E02B
S1130110AC0102C0440F551F6A95E2F7BA01622B85
S113012067BB089527B381E090E0AC0102C0440F9F
S1130130551F6A95E2F7BA016095622367BB08957B
S1130140413069F424B381E090E0AC0102C0440F73
S1130150551F6A95E2F7BA01622B64BB089524B374
S113016081E090E0AC0102C0440F551F6A95E2F7AC
S1130170BA016095622364BB0895413069F421B3E8
S113018081E090E0AC0102C0440F551F6A95E2F78C
S1130190BA01622B61BB089521B381E090E0AC0108
S11301A002C0440F551F6A95E2F7BA0160956223B5
S11301B061BB0895843409F471C0853448F48234F1
S11301C099F1833408F04DC0813409F083C00FC025
S11301D0823651F1833620F4813609F07BC007C0A2
S11301E0833609F43EC0843609F074C057C04130E8
S11301F069F42BB381E090E0AC0102C0440F551FB9
S11302006A95E2F7BA01622B6BBB08952BB381E0C8
S113021090E0AC0102C0440F551F6A95E2F7BA01A1
S1130220609562236BBB0895413069F428B381E083
S113023090E0AC0102C0440F551F6A95E2F7BA0181
S1130240622B68BB089528B381E090E0AC0102C042
S1130250440F551F6A95E2F7BA016095622368BBA3
S11302600895413069F425B381E090E0AC0102C007
S1130270440F551F6A95E2F7BA01622B65BB0895D6
S113028025B381E090E0AC0102C0440F551F6A958C
S1130290E2F7BA016095622365BB0895413069F4C1
S11302A022B381E090E0AC0102C0440F551F6A956F
S11302B0E2F7BA01622B62BB089522B381E090E0B9
S11302C0AC0102C0440F551F6A95E2F7BA0160956C
S11302D0622362BB0895843409F43DC0853440F43C
S11302E08234F9F0833450F5813409F040C00CC0F5
S11302F08236B9F0833618F48136C9F505C08336E1
S1130300E9F08436A1F527C02BB381E090E0AC017D
S113031002C0440F551F6A95E2F7BA0162276BBB0E
S1130320089528B381E090E0AC0102C0440F551F4A
S11303306A95E2F7BA01622768BB089525B381E0A4
S113034090E0AC0102C0440F551F6A95E2F7BA0170
S1130350622765BB089522B381E090E0AC0102C03E
S1130360440F551F6A95E2F7BA01622762BB0895EC
S1130370843409F44EC0853440F4823431F183343A
S1130380B0F5813409F057C00EC08236F1F08336DF
S113039020F4813609F04FC006C0833641F184361B
S11303A009F049C036C029B381E090E0062E02C0AE
S11303B0880F991F0A94E2F730E08223932302C046
S11303C0959587956A95E2F7089526B381E090E0C4
S11303D0062E02C0880F991F0A94E2F730E08223A8
S11303E0932302C0959587956A95E2F7089523B300
S11303F081E090E0062E02C0880F991F0A94E2F76C
S113040030E08223932302C0959587956A95E2F79D
S1130410089520B381E090E0062E02C0880F991F52
S11304200A94E2F730E08223932302C095958795DE
S11304306A95E2F7089580E008958434D9F085340C
S113044038F4823499F0833498F48134A1F40CC0E4
S1130450823661F0833618F4813669F405C0833638
S113046039F0843641F406C06ABB089567BB089529
S113047064BB089561BB08958434D9F0853438F49D
S1130480823499F0833498F48134A1F40CC0823618
S113049061F0833618F4813669F405C0833639F087
S11304A0843641F406C06BBB089568BB089565BBF0
S11304B0089562BB08958434D9F0853438F48234C5
S11304C099F0833498F48134A9F40CC0823661F035
S11304D0833618F4813671F405C0833639F08436D6
S11304E049F406C089B3089586B3089583B3089583
S11304F080B3089580E00895843409F1853438F494
S11305008234A9F08334B8F48134E1F40CC0823627
S113051071F0833618F48136A9F405C0833659F096
S1130520843681F40CC08BB380958BBB089588B35B
S1130530809588BB089585B3809585BB089582B363
S1130540809582BB0895843409F471C0853448F4DD
S1130550823499F1833408F04DC0813409F083C0AA
S11305600FC0823651F1833620F4813609F07BC006
S113057007C0833609F43EC0843609F074C057C0FE
S1130580413069F42BB381E090E0AC0102C0440F28
S1130590551F6A95E2F7BA01622B6BBB08952BB322
S11305A081E090E0AC0102C0440F551F6A95E2F768
S11305B0BA01609562236BBB0895413069F428B396
S11305C081E090E0AC0102C0440F551F6A95E2F748
S11305D0BA01622B68BB089528B381E090E0AC01B6
S11305E002C0440F551F6A95E2F7BA016095622371
S11305F068BB0895413069F425B381E090E0AC0113
S113060002C0440F551F6A95E2F7BA01622B65BB1D
S1130610089525B381E090E0AC0102C0440F551F5A
S11306206A95E2F7BA016095622365BB089541308B
S113063069F422B381E090E0AC0102C0440F551F7D
S11306406A95E2F7BA01622B62BB089522B381E096
S113065090E0AC0102C0440F551F6A95E2F7BA015D
S11306606095622362BB08956F70843451F18534C0
S113067038F48234C1F08334E8F4813441F50CC099
S1130680823689F0833618F4813609F505C083363D
S113069089F08436E1F415C08BB3807F8BBB8BB3B8
S11306A0682B6BBB089588B3807F88BB88B3682BA5
S11306B068BB089585B3807F85BB85B3682B65BB14
S11306C0089582B3807F82BB82B3682B62BB089596
S11306D06295607F843451F1853438F48234C1F0FA
S11306E08334E8F4813441F50CC0823689F08336D2
S11306F018F4813609F505C0833689F08436E1F4AF
S113070015C08BB38F708BBB8BB3682B6BBB0895F9
S113071088B38F7088BB88B3682B68BB089585B392
S11307208F7085BB85B3682B65BB089582B38F70CA
S113073082BB82B3682B62BB089581E40E94F303F9
S113074080E561E00E948E04B89AB99A1AE0C0E686
S1130750D0E010928A00C098C19A80918C00612FD9
S11307600E94B804682F81E4AE010E94F7038091CF
S11307708A008823E1F310928A00C09AC19880917C
S11307808C00612F0E94B80481E4692FAE010E949D
S1130790F70380918A008823E1F380918B008436EB
S11307A0C0F280918C008F5F80938C0080918C00CC
S11307B0853111F410928C0010928B00CACF1F92D5
S11307C00F920FB60F9211248F9380918B008F5F3D
S11307D080938B0081E080938A008F910F900FBEED
S11307E00F901F9018956FEF0E941D020895EF92CD
S11307F0FF920F931F93CF93DF93CDB7DEB72A9762
S11308000FB6F894DEBF0FBECDBFE82EF62E8A01D8
S113081088E690E0BA010E94C404282F392F2115DC
S1130820310589F4DE011196E6E7F0E08AE00190F3
S11308300D928150E1F7FE01EF0DF11D8E2D6181C6
S11308400E943C021AC080E790E0B8010E94C404F0
S1130850282F392F2115310581F4DE011196E0E8A6
S1130860F0E08AE001900D928150E1F7FE01EF0D76
S1130870F11D8E2D61810E943C022A960FB6F894D8
S1130880DEBF0FBECDBFDF91CF911F910F91FF90BF
S1130890EF900895CF93C82F60E041E00E94490093
S11308A08C2F61E041E00E9449008C2F62E041E01E
S11308B00E9449008C2F63E041E00E944900CF91DF
S11308C008950E94340308956130B1F493B79160A0
S11308D093BF93B79D7F93BF93B7946093BF93B730
S11308E09F7B93BF93B7977F93BF819582BF789483
S11308F089B7816089BF089593B7916093BF93B717
S11309009D7F93BF93B7946093BF93B79F7B93BF2F
S113091093B7977F93BF819582BF08956130B1F4F7
S113092093B7916093BF93B79D7F93BF93B7946040
S113093093BF93B79F7B93BF93B7986093BF12BE47
S11309408CBF789489B7826089BF089593B791600A
S113095093BF93B79D7F93BF93B7946093BF93B7AF
S11309609F7B93BF93B7986093BF12BE8CBF0895CB
S1130970991B79E004C0991F961708F0961B881FED
S11309807A95C9F780950895FB01DC018D9101905A
S111099080190110D9F3990B0895F894FFCF44
S113099E436174686F646500436174686F646500D5
S11309AE416E6F6465003F065B4F666D7D477F6FDA
S10D09BEC0F9A4B0999282B88090A9
S9030000FC
